{
  "contractName": "ContributionChannel",
  "abi": [
    {
      "constant": true,
      "inputs": [
        {
          "name": "",
          "type": "address"
        }
      ],
      "name": "balances",
      "outputs": [
        {
          "name": "",
          "type": "uint256"
        }
      ],
      "payable": false,
      "stateMutability": "view",
      "type": "function"
    },
    {
      "constant": true,
      "inputs": [
        {
          "name": "",
          "type": "bytes32"
        }
      ],
      "name": "usedMessages",
      "outputs": [
        {
          "name": "",
          "type": "bool"
        }
      ],
      "payable": false,
      "stateMutability": "view",
      "type": "function"
    },
    {
      "constant": true,
      "inputs": [
        {
          "name": "",
          "type": "uint256"
        }
      ],
      "name": "channels",
      "outputs": [
        {
          "name": "nonce",
          "type": "uint256"
        },
        {
          "name": "sender",
          "type": "address"
        },
        {
          "name": "signer",
          "type": "address"
        },
        {
          "name": "recipient",
          "type": "address"
        },
        {
          "name": "groupId",
          "type": "bytes32"
        },
        {
          "name": "value",
          "type": "uint256"
        },
        {
          "name": "expiration",
          "type": "uint256"
        }
      ],
      "payable": false,
      "stateMutability": "view",
      "type": "function"
    },
    {
      "constant": true,
      "inputs": [],
      "name": "nextChannelId",
      "outputs": [
        {
          "name": "",
          "type": "uint256"
        }
      ],
      "payable": false,
      "stateMutability": "view",
      "type": "function"
    },
    {
      "constant": true,
      "inputs": [],
      "name": "token",
      "outputs": [
        {
          "name": "",
          "type": "address"
        }
      ],
      "payable": false,
      "stateMutability": "view",
      "type": "function"
    },
    {
      "inputs": [
        {
          "name": "_token",
          "type": "address"
        }
      ],
      "payable": false,
      "stateMutability": "nonpayable",
      "type": "constructor"
    },
    {
      "anonymous": false,
      "inputs": [
        {
          "indexed": false,
          "name": "channelId",
          "type": "uint256"
        },
        {
          "indexed": false,
          "name": "nonce",
          "type": "uint256"
        },
        {
          "indexed": true,
          "name": "sender",
          "type": "address"
        },
        {
          "indexed": false,
          "name": "signer",
          "type": "address"
        },
        {
          "indexed": true,
          "name": "recipient",
          "type": "address"
        },
        {
          "indexed": true,
          "name": "groupId",
          "type": "bytes32"
        },
        {
          "indexed": false,
          "name": "amount",
          "type": "uint256"
        },
        {
          "indexed": false,
          "name": "expiration",
          "type": "uint256"
        }
      ],
      "name": "ChannelOpen",
      "type": "event"
    },
    {
      "anonymous": false,
      "inputs": [
        {
          "indexed": true,
          "name": "channelId",
          "type": "uint256"
        },
        {
          "indexed": false,
          "name": "nonce",
          "type": "uint256"
        },
        {
          "indexed": true,
          "name": "recipient",
          "type": "address"
        },
        {
          "indexed": false,
          "name": "claimAmount",
          "type": "uint256"
        },
        {
          "indexed": false,
          "name": "plannedAmount",
          "type": "uint256"
        },
        {
          "indexed": false,
          "name": "sendBackAmount",
          "type": "uint256"
        },
        {
          "indexed": false,
          "name": "keepAmount",
          "type": "uint256"
        }
      ],
      "name": "ChannelClaim",
      "type": "event"
    },
    {
      "anonymous": false,
      "inputs": [
        {
          "indexed": true,
          "name": "channelId",
          "type": "uint256"
        },
        {
          "indexed": false,
          "name": "nonce",
          "type": "uint256"
        },
        {
          "indexed": false,
          "name": "claimAmount",
          "type": "uint256"
        }
      ],
      "name": "ChannelSenderClaim",
      "type": "event"
    },
    {
      "anonymous": false,
      "inputs": [
        {
          "indexed": true,
          "name": "channelId",
          "type": "uint256"
        },
        {
          "indexed": false,
          "name": "newExpiration",
          "type": "uint256"
        }
      ],
      "name": "ChannelExtend",
      "type": "event"
    },
    {
      "anonymous": false,
      "inputs": [
        {
          "indexed": true,
          "name": "channelId",
          "type": "uint256"
        },
        {
          "indexed": false,
          "name": "additionalFunds",
          "type": "uint256"
        }
      ],
      "name": "ChannelAddFunds",
      "type": "event"
    },
    {
      "anonymous": false,
      "inputs": [
        {
          "indexed": true,
          "name": "sender",
          "type": "address"
        },
        {
          "indexed": false,
          "name": "amount",
          "type": "uint256"
        }
      ],
      "name": "DepositFunds",
      "type": "event"
    },
    {
      "anonymous": false,
      "inputs": [
        {
          "indexed": true,
          "name": "sender",
          "type": "address"
        },
        {
          "indexed": false,
          "name": "amount",
          "type": "uint256"
        }
      ],
      "name": "WithdrawFunds",
      "type": "event"
    },
    {
      "anonymous": false,
      "inputs": [
        {
          "indexed": true,
          "name": "sender",
          "type": "address"
        },
        {
          "indexed": true,
          "name": "receiver",
          "type": "address"
        },
        {
          "indexed": false,
          "name": "amount",
          "type": "uint256"
        }
      ],
      "name": "TransferFunds",
      "type": "event"
    },
    {
      "constant": true,
      "inputs": [],
      "name": "getAddresToChannelId",
      "outputs": [
        {
          "name": "",
          "type": "uint256"
        }
      ],
      "payable": false,
      "stateMutability": "view",
      "type": "function"
    },
    {
      "constant": true,
      "inputs": [
        {
          "name": "channelId",
          "type": "uint256"
        }
      ],
      "name": "getChannelIdToAddres",
      "outputs": [
        {
          "name": "",
          "type": "address"
        }
      ],
      "payable": false,
      "stateMutability": "view",
      "type": "function"
    },
    {
      "constant": false,
      "inputs": [
        {
          "name": "value",
          "type": "uint256"
        }
      ],
      "name": "deposit",
      "outputs": [
        {
          "name": "",
          "type": "bool"
        }
      ],
      "payable": false,
      "stateMutability": "nonpayable",
      "type": "function"
    },
    {
      "constant": false,
      "inputs": [
        {
          "name": "to",
          "type": "address"
        },
        {
          "name": "value",
          "type": "uint256"
        }
      ],
      "name": "depositTo",
      "outputs": [
        {
          "name": "",
          "type": "bool"
        }
      ],
      "payable": false,
      "stateMutability": "nonpayable",
      "type": "function"
    },
    {
      "constant": true,
      "inputs": [],
      "name": "getMsgSender",
      "outputs": [
        {
          "name": "",
          "type": "address"
        }
      ],
      "payable": false,
      "stateMutability": "view",
      "type": "function"
    },
    {
      "constant": false,
      "inputs": [
        {
          "name": "value",
          "type": "uint256"
        },
        {
          "name": "to",
          "type": "address"
        }
      ],
      "name": "withdraw",
      "outputs": [
        {
          "name": "",
          "type": "bool"
        }
      ],
      "payable": false,
      "stateMutability": "nonpayable",
      "type": "function"
    },
    {
      "constant": true,
      "inputs": [],
      "name": "balanceOwnerToken",
      "outputs": [
        {
          "name": "result",
          "type": "uint256"
        }
      ],
      "payable": false,
      "stateMutability": "view",
      "type": "function"
    },
    {
      "constant": true,
      "inputs": [
        {
          "name": "target",
          "type": "address"
        }
      ],
      "name": "balanceOwnerToken",
      "outputs": [
        {
          "name": "result",
          "type": "uint256"
        }
      ],
      "payable": false,
      "stateMutability": "view",
      "type": "function"
    },
    {
      "constant": false,
      "inputs": [
        {
          "name": "receiver",
          "type": "address"
        },
        {
          "name": "value",
          "type": "uint256"
        }
      ],
      "name": "transfer",
      "outputs": [
        {
          "name": "",
          "type": "bool"
        }
      ],
      "payable": false,
      "stateMutability": "nonpayable",
      "type": "function"
    },
    {
      "constant": false,
      "inputs": [
        {
          "name": "signer",
          "type": "address"
        },
        {
          "name": "recipient",
          "type": "address"
        },
        {
          "name": "groupId",
          "type": "bytes32"
        },
        {
          "name": "value",
          "type": "uint256"
        },
        {
          "name": "expiration",
          "type": "uint256"
        }
      ],
      "name": "openChannel",
      "outputs": [
        {
          "name": "",
          "type": "bool"
        }
      ],
      "payable": false,
      "stateMutability": "nonpayable",
      "type": "function"
    },
    {
      "constant": true,
      "inputs": [
        {
          "name": "message",
          "type": "bytes32"
        },
        {
          "name": "v",
          "type": "uint8"
        },
        {
          "name": "r",
          "type": "bytes32"
        },
        {
          "name": "s",
          "type": "bytes32"
        }
      ],
      "name": "getECRecover",
      "outputs": [
        {
          "name": "result",
          "type": "address"
        }
      ],
      "payable": false,
      "stateMutability": "pure",
      "type": "function"
    },
    {
      "constant": true,
      "inputs": [
        {
          "name": "_to",
          "type": "address"
        },
        {
          "name": "_amount",
          "type": "uint256"
        },
        {
          "name": "_message",
          "type": "string"
        },
        {
          "name": "_nonce",
          "type": "uint256"
        }
      ],
      "name": "getMessageHash",
      "outputs": [
        {
          "name": "",
          "type": "bytes32"
        }
      ],
      "payable": false,
      "stateMutability": "pure",
      "type": "function"
    },
    {
      "constant": true,
      "inputs": [
        {
          "name": "_messageHash",
          "type": "bytes32"
        }
      ],
      "name": "getEthSignedMessageHash",
      "outputs": [
        {
          "name": "",
          "type": "bytes32"
        }
      ],
      "payable": false,
      "stateMutability": "pure",
      "type": "function"
    },
    {
      "constant": true,
      "inputs": [
        {
          "name": "_signer",
          "type": "address"
        },
        {
          "name": "_to",
          "type": "address"
        },
        {
          "name": "_amount",
          "type": "uint256"
        },
        {
          "name": "_message",
          "type": "string"
        },
        {
          "name": "_nonce",
          "type": "uint256"
        },
        {
          "name": "signature",
          "type": "bytes"
        }
      ],
      "name": "verify",
      "outputs": [
        {
          "name": "",
          "type": "bool"
        }
      ],
      "payable": false,
      "stateMutability": "pure",
      "type": "function"
    },
    {
      "constant": true,
      "inputs": [
        {
          "name": "_ethSignedMessageHash",
          "type": "bytes32"
        },
        {
          "name": "_signature",
          "type": "bytes"
        }
      ],
      "name": "recoverSigner",
      "outputs": [
        {
          "name": "",
          "type": "address"
        }
      ],
      "payable": false,
      "stateMutability": "pure",
      "type": "function"
    },
    {
      "constant": true,
      "inputs": [
        {
          "name": "sig",
          "type": "bytes"
        }
      ],
      "name": "splitSignature",
      "outputs": [
        {
          "name": "r",
          "type": "bytes32"
        },
        {
          "name": "s",
          "type": "bytes32"
        },
        {
          "name": "v",
          "type": "uint8"
        }
      ],
      "payable": false,
      "stateMutability": "pure",
      "type": "function"
    },
    {
      "constant": false,
      "inputs": [
        {
          "name": "sender",
          "type": "address"
        },
        {
          "name": "signer",
          "type": "address"
        },
        {
          "name": "recipient",
          "type": "address"
        },
        {
          "name": "groupId",
          "type": "bytes32"
        },
        {
          "name": "value",
          "type": "uint256"
        },
        {
          "name": "expiration",
          "type": "uint256"
        },
        {
          "name": "messageNonce",
          "type": "uint256"
        },
        {
          "name": "givenMessage",
          "type": "string"
        },
        {
          "name": "v",
          "type": "uint8"
        },
        {
          "name": "r",
          "type": "bytes32"
        },
        {
          "name": "s",
          "type": "bytes32"
        },
        {
          "name": "message",
          "type": "bytes"
        }
      ],
      "name": "openChannelByThirdParty",
      "outputs": [
        {
          "name": "",
          "type": "bool"
        }
      ],
      "payable": false,
      "stateMutability": "nonpayable",
      "type": "function"
    },
    {
      "constant": false,
      "inputs": [
        {
          "name": "signer",
          "type": "address"
        },
        {
          "name": "recipient",
          "type": "address"
        },
        {
          "name": "groupId",
          "type": "bytes32"
        },
        {
          "name": "value",
          "type": "uint256"
        },
        {
          "name": "expiration",
          "type": "uint256"
        }
      ],
      "name": "depositAndOpenChannel",
      "outputs": [
        {
          "name": "",
          "type": "bool"
        }
      ],
      "payable": false,
      "stateMutability": "nonpayable",
      "type": "function"
    },
    {
      "constant": false,
      "inputs": [
        {
          "name": "channelIds",
          "type": "uint256[]"
        },
        {
          "name": "actualAmounts",
          "type": "uint256[]"
        },
        {
          "name": "plannedAmounts",
          "type": "uint256[]"
        },
        {
          "name": "isSendbacks",
          "type": "bool[]"
        },
        {
          "name": "v",
          "type": "uint8[]"
        },
        {
          "name": "r",
          "type": "bytes32[]"
        },
        {
          "name": "s",
          "type": "bytes32[]"
        },
        {
          "name": "receiver",
          "type": "address"
        },
        {
          "name": "message",
          "type": "bytes"
        }
      ],
      "name": "multiChannelClaim",
      "outputs": [],
      "payable": false,
      "stateMutability": "nonpayable",
      "type": "function"
    },
    {
      "constant": false,
      "inputs": [
        {
          "name": "channelId",
          "type": "uint256"
        },
        {
          "name": "actualAmount",
          "type": "uint256"
        },
        {
          "name": "plannedAmount",
          "type": "uint256"
        },
        {
          "name": "givenString",
          "type": "string"
        },
        {
          "name": "v",
          "type": "uint8"
        },
        {
          "name": "r",
          "type": "bytes32"
        },
        {
          "name": "s",
          "type": "bytes32"
        },
        {
          "name": "isSendback",
          "type": "bool"
        },
        {
          "name": "receiver",
          "type": "address"
        },
        {
          "name": "message",
          "type": "bytes"
        }
      ],
      "name": "channelClaim",
      "outputs": [],
      "payable": false,
      "stateMutability": "nonpayable",
      "type": "function"
    },
    {
      "constant": false,
      "inputs": [
        {
          "name": "channelId",
          "type": "uint256"
        },
        {
          "name": "newExpiration",
          "type": "uint256"
        }
      ],
      "name": "channelExtend",
      "outputs": [
        {
          "name": "",
          "type": "bool"
        }
      ],
      "payable": false,
      "stateMutability": "nonpayable",
      "type": "function"
    },
    {
      "constant": false,
      "inputs": [
        {
          "name": "channelId",
          "type": "uint256"
        },
        {
          "name": "amount",
          "type": "uint256"
        }
      ],
      "name": "channelAddFunds",
      "outputs": [
        {
          "name": "",
          "type": "bool"
        }
      ],
      "payable": false,
      "stateMutability": "nonpayable",
      "type": "function"
    },
    {
      "constant": false,
      "inputs": [
        {
          "name": "channelId",
          "type": "uint256"
        },
        {
          "name": "newExpiration",
          "type": "uint256"
        },
        {
          "name": "amount",
          "type": "uint256"
        }
      ],
      "name": "channelExtendAndAddFunds",
      "outputs": [],
      "payable": false,
      "stateMutability": "nonpayable",
      "type": "function"
    },
    {
      "constant": false,
      "inputs": [
        {
          "name": "channelId",
          "type": "uint256"
        }
      ],
      "name": "channelClaimTimeout",
      "outputs": [],
      "payable": false,
      "stateMutability": "nonpayable",
      "type": "function"
    }
  ],
  "bytecode": "0x608060405234801561001057600080fd5b50604051602080613ca28339810180604052810190808051906020019092919050505080600560006101000a81548173ffffffffffffffffffffffffffffffffffffffff021916908373ffffffffffffffffffffffffffffffffffffffff16021790555050613c1e806100846000396000f300608060405260043610610174576000357c0100000000000000000000000000000000000000000000000000000000900463ffffffff168062f714ce14610179578063047df8f9146101de57806304aff9b61461027b5780630c19d0ec146102a657806327e235e3146102e75780632d2a5fea1461033e5780632fd640c5146103d857806345059a5d1461055457806345307d52146105a35780635a028400146108015780635afa4eef1461084a5780636878b5c71461096c5780637a6ce2e1146109d95780638f8906e414610a3057806397aba7f914610a5b578063a35f8a4014610b12578063a7bb580314610bcb578063a9059cbb14610c6c578063abe5026a14610cd1578063b6b55f2514610dec578063baea65b514610e31578063da2a5b4f14610e5e578063dd2621b414610ead578063e3b3925014610f04578063e5949b5d14610fa1578063f4606f0014611098578063fa540801146110c3578063fc0c546a14611110578063ffaad6a514611167575b600080fd5b34801561018557600080fd5b506101c460048036038101908080359060200190929190803573ffffffffffffffffffffffffffffffffffffffff1690602001909291905050506111cc565b604051808215151515815260200191505060405180910390f35b3480156101ea57600080fd5b50610261600480360381019080803573ffffffffffffffffffffffffffffffffffffffff169060200190929190803573ffffffffffffffffffffffffffffffffffffffff16906020019092919080356000191690602001909291908035906020019092919080359060200190929190505050611532565b604051808215151515815260200191505060405180910390f35b34801561028757600080fd5b50610290611665565b6040518082815260200191505060405180910390f35b3480156102b257600080fd5b506102e56004803603810190808035906020019092919080359060200190929190803590602001909291905050506116ac565b005b3480156102f357600080fd5b50610328600480360381019080803573ffffffffffffffffffffffffffffffffffffffff1690602001909291905050506117ad565b6040518082815260200191505060405180910390f35b34801561034a57600080fd5b506103966004803603810190808035600019169060200190929190803560ff169060200190929190803560001916906020019092919080356000191690602001909291905050506117c5565b604051808273ffffffffffffffffffffffffffffffffffffffff1673ffffffffffffffffffffffffffffffffffffffff16815260200191505060405180910390f35b3480156103e457600080fd5b5061053a600480360381019080803573ffffffffffffffffffffffffffffffffffffffff169060200190929190803573ffffffffffffffffffffffffffffffffffffffff169060200190929190803573ffffffffffffffffffffffffffffffffffffffff1690602001909291908035600019169060200190929190803590602001909291908035906020019092919080359060200190929190803590602001908201803590602001908080601f0160208091040260200160405190810160405280939291908181526020018383808284378201915050505050509192919290803560ff16906020019092919080356000191690602001909291908035600019169060200190929190803590602001908201803590602001908080601f0160208091040260200160405190810160405280939291908181526020018383808284378201915050505050509192919290505050611852565b604051808215151515815260200191505060405180910390f35b34801561056057600080fd5b506105896004803603810190808035906020019092919080359060200190929190505050611a24565b604051808215151515815260200191505060405180910390f35b3480156105af57600080fd5b506107ff60048036038101908080359060200190820180359060200190808060200260200160405190810160405280939291908181526020018383602002808284378201915050505050509192919290803590602001908201803590602001908080602002602001604051908101604052809392919081815260200183836020028082843782019150505050505091929192908035906020019082018035906020019080806020026020016040519081016040528093929190818152602001838360200280828437820191505050505050919291929080359060200190820180359060200190808060200260200160405190810160405280939291908181526020018383602002808284378201915050505050509192919290803590602001908201803590602001908080602002602001604051908101604052809392919081815260200183836020028082843782019150505050505091929192908035906020019082018035906020019080806020026020016040519081016040528093929190818152602001838360200280828437820191505050505050919291929080359060200190820180359060200190808060200260200160405190810160405280939291908181526020018383602002808284378201915050505050509192919290803573ffffffffffffffffffffffffffffffffffffffff169060200190929190803590602001908201803590602001908080601f0160208091040260200160405190810160405280939291908181526020018383808284378201915050505050509192919290505050611bdb565b005b34801561080d57600080fd5b506108306004803603810190808035600019169060200190929190505050611d80565b604051808215151515815260200191505060405180910390f35b34801561085657600080fd5b5061096a600480360381019080803590602001909291908035906020019092919080359060200190929190803590602001908201803590602001908080601f0160208091040260200160405190810160405280939291908181526020018383808284378201915050505050509192919290803560ff16906020019092919080356000191690602001909291908035600019169060200190929190803515159060200190929190803573ffffffffffffffffffffffffffffffffffffffff169060200190929190803590602001908201803590602001908080601f0160208091040260200160405190810160405280939291908181526020018383808284378201915050505050509192919290505050611da0565b005b34801561097857600080fd5b5061099760048036038101908080359060200190929190505050612107565b604051808273ffffffffffffffffffffffffffffffffffffffff1673ffffffffffffffffffffffffffffffffffffffff16815260200191505060405180910390f35b3480156109e557600080fd5b506109ee612144565b604051808273ffffffffffffffffffffffffffffffffffffffff1673ffffffffffffffffffffffffffffffffffffffff16815260200191505060405180910390f35b348015610a3c57600080fd5b50610a4561216e565b6040518082815260200191505060405180910390f35b348015610a6757600080fd5b50610ad06004803603810190808035600019169060200190929190803590602001908201803590602001908080601f016020809104026020016040519081016040528093929190818152602001838380828437820191505050505050919291929050505061226d565b604051808273ffffffffffffffffffffffffffffffffffffffff1673ffffffffffffffffffffffffffffffffffffffff16815260200191505060405180910390f35b348015610b1e57600080fd5b50610bad600480360381019080803573ffffffffffffffffffffffffffffffffffffffff16906020019092919080359060200190929190803590602001908201803590602001908080601f01602080910402602001604051908101604052809392919081815260200183838082843782019150505050505091929192908035906020019092919050505061230e565b60405180826000191660001916815260200191505060405180910390f35b348015610bd757600080fd5b50610c32600480360381019080803590602001908201803590602001908080601f016020809104026020016040519081016040528093929190818152602001838380828437820191505050505050919291929050505061243c565b60405180846000191660001916815260200183600019166000191681526020018260ff1660ff168152602001935050505060405180910390f35b348015610c7857600080fd5b50610cb7600480360381019080803573ffffffffffffffffffffffffffffffffffffffff169060200190929190803590602001909291905050506124d9565b604051808215151515815260200191505060405180910390f35b348015610cdd57600080fd5b50610dd2600480360381019080803573ffffffffffffffffffffffffffffffffffffffff169060200190929190803573ffffffffffffffffffffffffffffffffffffffff16906020019092919080359060200190929190803590602001908201803590602001908080601f016020809104026020016040519081016040528093929190818152602001838380828437820191505050505050919291929080359060200190929190803590602001908201803590602001908080601f0160208091040260200160405190810160405280939291908181526020018383808284378201915050505050509192919290505050612751565b604051808215151515815260200191505060405180910390f35b348015610df857600080fd5b50610e17600480360381019080803590602001909291905050506127b5565b604051808215151515815260200191505060405180910390f35b348015610e3d57600080fd5b50610e5c60048036038101908080359060200190929190505050612a71565b005b348015610e6a57600080fd5b50610e936004803603810190808035906020019092919080359060200190929190505050612c4c565b604051808215151515815260200191505060405180910390f35b348015610eb957600080fd5b50610eee600480360381019080803573ffffffffffffffffffffffffffffffffffffffff169060200190929190505050612e43565b6040518082815260200191505060405180910390f35b348015610f1057600080fd5b50610f87600480360381019080803573ffffffffffffffffffffffffffffffffffffffff169060200190929190803573ffffffffffffffffffffffffffffffffffffffff16906020019092919080356000191690602001909291908035906020019092919080359060200190929190505050612f44565b604051808215151515815260200191505060405180910390f35b348015610fad57600080fd5b50610fcc600480360381019080803590602001909291905050506130ee565b604051808881526020018773ffffffffffffffffffffffffffffffffffffffff1673ffffffffffffffffffffffffffffffffffffffff1681526020018673ffffffffffffffffffffffffffffffffffffffff1673ffffffffffffffffffffffffffffffffffffffff1681526020018573ffffffffffffffffffffffffffffffffffffffff1673ffffffffffffffffffffffffffffffffffffffff168152602001846000191660001916815260200183815260200182815260200197505050505050505060405180910390f35b3480156110a457600080fd5b506110ad613190565b6040518082815260200191505060405180910390f35b3480156110cf57600080fd5b506110f26004803603810190808035600019169060200190929190505050613196565b60405180826000191660001916815260200191505060405180910390f35b34801561111c57600080fd5b50611125613251565b604051808273ffffffffffffffffffffffffffffffffffffffff1673ffffffffffffffffffffffffffffffffffffffff16815260200191505060405180910390f35b34801561117357600080fd5b506111b2600480360381019080803573ffffffffffffffffffffffffffffffffffffffff16906020019092919080359060200190929190505050613277565b604051808215151515815260200191505060405180910390f35b600082600160008473ffffffffffffffffffffffffffffffffffffffff1673ffffffffffffffffffffffffffffffffffffffff16815260200190815260200160002054101515156112ab576040517f08c379a00000000000000000000000000000000000000000000000000000000081526004018080602001828103825260258152602001807f496e73756666696369656e742062616c616e636520696e2074686520636f6e7481526020017f726163742e00000000000000000000000000000000000000000000000000000081525060400191505060405180910390fd5b600560009054906101000a900473ffffffffffffffffffffffffffffffffffffffff1673ffffffffffffffffffffffffffffffffffffffff1663a9059cbb83856040518363ffffffff167c0100000000000000000000000000000000000000000000000000000000028152600401808373ffffffffffffffffffffffffffffffffffffffff1673ffffffffffffffffffffffffffffffffffffffff16815260200182815260200192505050602060405180830381600087803b15801561137057600080fd5b505af1158015611384573d6000803e3d6000fd5b505050506040513d602081101561139a57600080fd5b81019080805190602001909291905050501515611445576040517f08c379a00000000000000000000000000000000000000000000000000000000081526004018080602001828103825260298152602001807f556e61626c6520746f207472616e7366657220746f6b656e20746f207468652081526020017f636f6e74726163742e000000000000000000000000000000000000000000000081525060400191505060405180910390fd5b61149783600160008573ffffffffffffffffffffffffffffffffffffffff1673ffffffffffffffffffffffffffffffffffffffff168152602001908152602001600020546136f090919063ffffffff16565b600160008473ffffffffffffffffffffffffffffffffffffffff1673ffffffffffffffffffffffffffffffffffffffff168152602001908152602001600020819055508173ffffffffffffffffffffffffffffffffffffffff167f21901fa892c430ea8bd38b9390225ac8e67eac75ee10ffba16feefc539a288f9846040518082815260200191505060405180910390a26001905092915050565b600061153d836127b5565b15156115d7576040517f08c379a00000000000000000000000000000000000000000000000000000000081526004018080602001828103825260288152602001807f556e61626c6520746f206465706f73697420746f6b656e20746f20746865206381526020017f6f6e74726163742e00000000000000000000000000000000000000000000000081525060400191505060405180910390fd5b6115e48686868686612f44565b1515611658576040517f08c379a00000000000000000000000000000000000000000000000000000000081526004018080602001828103825260178152602001807f556e61626c6520746f206f70656e206368616e6e656c2e00000000000000000081525060200191505060405180910390fd5b6001905095945050505050565b6000600360003373ffffffffffffffffffffffffffffffffffffffff1673ffffffffffffffffffffffffffffffffffffffff16815260200190815260200160002054905090565b6116b68383611a24565b151561172a576040517f08c379a000000000000000000000000000000000000000000000000000000000815260040180806020018281038252601d8152602001807f556e61626c6520746f20657874656e6420746865206368616e6e656c2e00000081525060200191505060405180910390fd5b6117348382612c4c565b15156117a8576040517f08c379a000000000000000000000000000000000000000000000000000000000815260040180806020018281038252601f8152602001807f556e61626c6520746f206164642066756e647320746f206368616e6e656c2e0081525060200191505060405180910390fd5b505050565b60016020528060005260406000206000915090505481565b6000600185858585604051600081526020016040526040518085600019166000191681526020018460ff1660ff1681526020018360001916600019168152602001826000191660001916815260200194505050505060206040516020810390808403906000865af115801561183e573d6000803e3d6000fd5b505050602060405103519050949350505050565b600088600160003373ffffffffffffffffffffffffffffffffffffffff1673ffffffffffffffffffffffffffffffffffffffff168152602001908152602001600020541015151561190b576040517f08c379a00000000000000000000000000000000000000000000000000000000081526004018080602001828103825260148152602001807f496e73756666696369656e742062616c616e636500000000000000000000000081525060200191505060405180910390fd5b61191a8c8c6001898b87612751565b151561198e576040517f08c379a00000000000000000000000000000000000000000000000000000000081526004018080602001828103825260118152602001807f496e76616c6964207369676e617475726500000000000000000000000000000081525060200191505060405180910390fd5b61199c8d8d8d8d8d8d613711565b1515611a10576040517f08c379a00000000000000000000000000000000000000000000000000000000081526004018080602001828103825260168152602001807f556e61626c6520746f206f70656e206368616e6e656c0000000000000000000081525060200191505060405180910390fd5b600190509c9b505050505050505050505050565b60008060008085815260200190815260200160002090508060010160009054906101000a900473ffffffffffffffffffffffffffffffffffffffff1673ffffffffffffffffffffffffffffffffffffffff163373ffffffffffffffffffffffffffffffffffffffff16141515611b02576040517f08c379a00000000000000000000000000000000000000000000000000000000081526004018080602001828103825260158152602001807f53656e646572206e6f7420617574686f72697a6564000000000000000000000081525060200191505060405180910390fd5b80600601548310151515611b7e576040517f08c379a00000000000000000000000000000000000000000000000000000000081526004018080602001828103825260138152602001807f496e76616c69642065787069726174696f6e2e0000000000000000000000000081525060200191505060405180910390fd5b8260008086815260200190815260200160002060060181905550837ff8d4e64f6b2b3db6aaf38b319e259285a48ecd0c5bc0115c9928aba297c73420846040518082815260200191505060405180910390a2600191505092915050565b6000808a519150818951148015611bf25750818a51145b8015611bfe5750818851145b8015611c0a5750818751145b8015611c165750818651145b8015611c225750818551145b1515611c96576040517f08c379a000000000000000000000000000000000000000000000000000000000815260040180806020018281038252601c8152602001807f496e76616c69642066756e6374696f6e20706172616d65746572732e0000000081525060200191505060405180910390fd5b600090505b81811015611d7357611d668b82815181101515611cb457fe5b906020019060200201518b83815181101515611ccc57fe5b906020019060200201518b84815181101515611ce457fe5b9060200190602002015160206040519081016040528060008152508b86815181101515611d0d57fe5b906020019060200201518b87815181101515611d2557fe5b906020019060200201518b88815181101515611d3d57fe5b906020019060200201518f89815181101515611d5557fe5b906020019060200201518c8c611da0565b8080600101915050611c9b565b5050505050505050505050565b60066020528060005260406000206000915054906101000a900460ff1681565b60008060008c8152602001908152602001600020905080600501548a11151515611e32576040517f08c379a000000000000000000000000000000000000000000000000000000000815260040180806020018281038252601b8152602001807f496e73756666696369656e74206368616e6e656c20616d6f756e74000000000081525060200191505060405180910390fd5b888a11151515611eaa576040517f08c379a00000000000000000000000000000000000000000000000000000000081526004018080602001828103825260158152602001807f496e76616c69642061637475616c20616d6f756e74000000000000000000000081525060200191505060405180910390fd5b611eba338460018b600187612751565b1515611f2e576040517f08c379a00000000000000000000000000000000000000000000000000000000081526004018080602001828103825260118152602001807f496e76616c6964207369676e617475726500000000000000000000000000000081525060200191505060405180910390fd5b611f458a82600501546136f090919063ffffffff16565b8160050181905550611f9f8a600160008673ffffffffffffffffffffffffffffffffffffffff1673ffffffffffffffffffffffffffffffffffffffff16815260200190815260200160002054613aaf90919063ffffffff16565b600160008573ffffffffffffffffffffffffffffffffffffffff1673ffffffffffffffffffffffffffffffffffffffff16815260200190815260200160002081905550831561206e57611ff18b613ad0565b3373ffffffffffffffffffffffffffffffffffffffff168b7f77c3504a57863d978ba4c28ea297490f1f4814365f5ed32b35cbf5b695db003c83600001548d8d86600501546000604051808681526020018581526020018481526020018381526020018281526020019550505050505060405180910390a36120fa565b600181600001600082825401925050819055503373ffffffffffffffffffffffffffffffffffffffff168b7f77c3504a57863d978ba4c28ea297490f1f4814365f5ed32b35cbf5b695db003c83600001548d8d60008760050154604051808681526020018581526020018481526020018381526020018281526020019550505050505060405180910390a35b5050505050505050505050565b60006004600083815260200190815260200160002060009054906101000a900473ffffffffffffffffffffffffffffffffffffffff169050919050565b6000600560009054906101000a900473ffffffffffffffffffffffffffffffffffffffff16905090565b6000600560009054906101000a900473ffffffffffffffffffffffffffffffffffffffff1673ffffffffffffffffffffffffffffffffffffffff16639b0c86a5336040518263ffffffff167c0100000000000000000000000000000000000000000000000000000000028152600401808273ffffffffffffffffffffffffffffffffffffffff1673ffffffffffffffffffffffffffffffffffffffff168152602001915050602060405180830381600087803b15801561222d57600080fd5b505af1158015612241573d6000803e3d6000fd5b505050506040513d602081101561225757600080fd5b8101908080519060200190929190505050905090565b60008060008061227c8561243c565b925092509250600186828585604051600081526020016040526040518085600019166000191681526020018460ff1660ff1681526020018360001916600019168152602001826000191660001916815260200194505050505060206040516020810390808403906000865af11580156122f9573d6000803e3d6000fd5b50505060206040510351935050505092915050565b600084848484604051602001808573ffffffffffffffffffffffffffffffffffffffff1673ffffffffffffffffffffffffffffffffffffffff166c0100000000000000000000000002815260140184815260200183805190602001908083835b602083101515612393578051825260208201915060208101905060208303925061236e565b6001836020036101000a0380198251168184511680821785525050505050509050018281526020019450505050506040516020818303038152906040526040518082805190602001908083835b60208310151561240557805182526020820191506020810190506020830392506123e0565b6001836020036101000a03801982511681845116808217855250505050505090500191505060405180910390209050949350505050565b6000806000604184511415156124ba576040517f08c379a00000000000000000000000000000000000000000000000000000000081526004018080602001828103825260188152602001807f696e76616c6964207369676e6174757265206c656e677468000000000000000081525060200191505060405180910390fd5b6020840151925060408401519150606084015160001a90509193909250565b600081600160003373ffffffffffffffffffffffffffffffffffffffff1673ffffffffffffffffffffffffffffffffffffffff16815260200190815260200160002054101515156125b8576040517f08c379a00000000000000000000000000000000000000000000000000000000081526004018080602001828103825260248152602001807f496e73756666696369656e742062616c616e636520696e2074686520636f6e7481526020017f726163740000000000000000000000000000000000000000000000000000000081525060400191505060405180910390fd5b61260a82600160003373ffffffffffffffffffffffffffffffffffffffff1673ffffffffffffffffffffffffffffffffffffffff168152602001908152602001600020546136f090919063ffffffff16565b600160003373ffffffffffffffffffffffffffffffffffffffff1673ffffffffffffffffffffffffffffffffffffffff1681526020019081526020016000208190555061269f82600160008673ffffffffffffffffffffffffffffffffffffffff1673ffffffffffffffffffffffffffffffffffffffff16815260200190815260200160002054613aaf90919063ffffffff16565b600160008573ffffffffffffffffffffffffffffffffffffffff1673ffffffffffffffffffffffffffffffffffffffff168152602001908152602001600020819055508273ffffffffffffffffffffffffffffffffffffffff163373ffffffffffffffffffffffffffffffffffffffff167f5a0155838afb0f859197785e575b9ad1afeb456c6e522b6f632ee8465941315e846040518082815260200191505060405180910390a36001905092915050565b60008060006127628888888861230e565b915061276d82613196565b90508873ffffffffffffffffffffffffffffffffffffffff16612790828661226d565b73ffffffffffffffffffffffffffffffffffffffff1614925050509695505050505050565b6000600560009054906101000a900473ffffffffffffffffffffffffffffffffffffffff1673ffffffffffffffffffffffffffffffffffffffff166323b872dd3330856040518463ffffffff167c0100000000000000000000000000000000000000000000000000000000028152600401808473ffffffffffffffffffffffffffffffffffffffff1673ffffffffffffffffffffffffffffffffffffffff1681526020018373ffffffffffffffffffffffffffffffffffffffff1673ffffffffffffffffffffffffffffffffffffffff1681526020018281526020019350505050602060405180830381600087803b1580156128b057600080fd5b505af11580156128c4573d6000803e3d6000fd5b505050506040513d60208110156128da57600080fd5b81019080805190602001909291905050501515612985576040517f08c379a00000000000000000000000000000000000000000000000000000000081526004018080602001828103825260298152602001807f556e61626c6520746f207472616e7366657220746f6b656e20746f207468652081526020017f636f6e74726163742e000000000000000000000000000000000000000000000081525060400191505060405180910390fd5b6129d782600160003373ffffffffffffffffffffffffffffffffffffffff1673ffffffffffffffffffffffffffffffffffffffff16815260200190815260200160002054613aaf90919063ffffffff16565b600160003373ffffffffffffffffffffffffffffffffffffffff1673ffffffffffffffffffffffffffffffffffffffff168152602001908152602001600020819055503373ffffffffffffffffffffffffffffffffffffffff167fd241e73300212f6df233a8e6d3146b88a9d4964e06621d54b5ff6afeba7b1b88836040518082815260200191505060405180910390a260019050919050565b60008082815260200190815260200160002060010160009054906101000a900473ffffffffffffffffffffffffffffffffffffffff1673ffffffffffffffffffffffffffffffffffffffff163373ffffffffffffffffffffffffffffffffffffffff16141515612b49576040517f08c379a00000000000000000000000000000000000000000000000000000000081526004018080602001828103825260168152602001807f53656e646572206e6f7420617574686f72697a65642e0000000000000000000081525060200191505060405180910390fd5b600080828152602001908152602001600020600601544310151515612bd6576040517f08c379a00000000000000000000000000000000000000000000000000000000081526004018080602001828103825260178152602001807f436c61696d2063616c6c656420746f6f206561726c792e00000000000000000081525060200191505060405180910390fd5b612bdf81613ad0565b807f592ba8545b0ef2ef56ac54c4db27df2bdbb2a60acc1c5a4ac134eccc20cb80966000808481526020019081526020016000206000015460008085815260200190815260200160002060050154604051808381526020018281526020019250505060405180910390a250565b600081600160003373ffffffffffffffffffffffffffffffffffffffff1673ffffffffffffffffffffffffffffffffffffffff1681526020019081526020016000205410151515612d2b576040517f08c379a00000000000000000000000000000000000000000000000000000000081526004018080602001828103825260248152602001807f496e73756666696369656e742062616c616e636520696e2074686520636f6e7481526020017f726163740000000000000000000000000000000000000000000000000000000081525060400191505060405180910390fd5b612d7d82600160003373ffffffffffffffffffffffffffffffffffffffff1673ffffffffffffffffffffffffffffffffffffffff168152602001908152602001600020546136f090919063ffffffff16565b600160003373ffffffffffffffffffffffffffffffffffffffff1673ffffffffffffffffffffffffffffffffffffffff16815260200190815260200160002081905550612de88260008086815260200190815260200160002060050154613aaf90919063ffffffff16565b60008085815260200190815260200160002060050181905550827fb0e2286f86435d8f98d9cf1c908b693792eb905dd03cd40d2b1d23a3e5311a40836040518082815260200191505060405180910390a26001905092915050565b6000600560009054906101000a900473ffffffffffffffffffffffffffffffffffffffff1673ffffffffffffffffffffffffffffffffffffffff16639b0c86a5836040518263ffffffff167c0100000000000000000000000000000000000000000000000000000000028152600401808273ffffffffffffffffffffffffffffffffffffffff1673ffffffffffffffffffffffffffffffffffffffff168152602001915050602060405180830381600087803b158015612f0257600080fd5b505af1158015612f16573d6000803e3d6000fd5b505050506040513d6020811015612f2c57600080fd5b81019080805190602001909291905050509050919050565b600082600160003373ffffffffffffffffffffffffffffffffffffffff1673ffffffffffffffffffffffffffffffffffffffff1681526020019081526020016000205410151515613023576040517f08c379a00000000000000000000000000000000000000000000000000000000081526004018080602001828103825260258152602001807f496e73756666696369656e742062616c616e636520696e2074686520636f6e7481526020017f726163742e00000000000000000000000000000000000000000000000000000081525060400191505060405180910390fd5b600073ffffffffffffffffffffffffffffffffffffffff168673ffffffffffffffffffffffffffffffffffffffff161415151561305f57600080fd5b61306d338787878787613711565b15156130e1576040517f08c379a00000000000000000000000000000000000000000000000000000000081526004018080602001828103825260168152602001807f556e61626c6520746f206f70656e206368616e6e656c0000000000000000000081525060200191505060405180910390fd5b6001905095945050505050565b60006020528060005260406000206000915090508060000154908060010160009054906101000a900473ffffffffffffffffffffffffffffffffffffffff16908060020160009054906101000a900473ffffffffffffffffffffffffffffffffffffffff16908060030160009054906101000a900473ffffffffffffffffffffffffffffffffffffffff16908060040154908060050154908060060154905087565b60025481565b60008160405160200180807f19457468657265756d205369676e6564204d6573736167653a0a333200000000815250601c0182600019166000191681526020019150506040516020818303038152906040526040518082805190602001908083835b60208310151561321d57805182526020820191506020810190506020830392506131f8565b6001836020036101000a03801982511681845116808217855250505050505090500191505060405180910390209050919050565b600560009054906101000a900473ffffffffffffffffffffffffffffffffffffffff1681565b6000600560009054906101000a900473ffffffffffffffffffffffffffffffffffffffff1673ffffffffffffffffffffffffffffffffffffffff1663095ea7b333846040518363ffffffff167c0100000000000000000000000000000000000000000000000000000000028152600401808373ffffffffffffffffffffffffffffffffffffffff1673ffffffffffffffffffffffffffffffffffffffff16815260200182815260200192505050602060405180830381600087803b15801561333e57600080fd5b505af1158015613352573d6000803e3d6000fd5b505050506040513d602081101561336857600080fd5b81019080805190602001909291905050501515613413576040517f08c379a00000000000000000000000000000000000000000000000000000000081526004018080602001828103825260258152602001807f556e61626c6520746f20617070726f766520746f6b656e206f66206d73672e7381526020017f656e64657200000000000000000000000000000000000000000000000000000081525060400191505060405180910390fd5b600560009054906101000a900473ffffffffffffffffffffffffffffffffffffffff1673ffffffffffffffffffffffffffffffffffffffff166323b872dd84600560009054906101000a900473ffffffffffffffffffffffffffffffffffffffff16856040518463ffffffff167c0100000000000000000000000000000000000000000000000000000000028152600401808473ffffffffffffffffffffffffffffffffffffffff1673ffffffffffffffffffffffffffffffffffffffff1681526020018373ffffffffffffffffffffffffffffffffffffffff1673ffffffffffffffffffffffffffffffffffffffff1681526020018281526020019350505050602060405180830381600087803b15801561352e57600080fd5b505af1158015613542573d6000803e3d6000fd5b505050506040513d602081101561355857600080fd5b81019080805190602001909291905050501515613603576040517f08c379a00000000000000000000000000000000000000000000000000000000081526004018080602001828103825260298152602001807f556e61626c6520746f207472616e7366657220746f6b656e20746f207468652081526020017f636f6e74726163742e000000000000000000000000000000000000000000000081525060400191505060405180910390fd5b61365582600160003373ffffffffffffffffffffffffffffffffffffffff1673ffffffffffffffffffffffffffffffffffffffff16815260200190815260200160002054613aaf90919063ffffffff16565b600160003373ffffffffffffffffffffffffffffffffffffffff1673ffffffffffffffffffffffffffffffffffffffff168152602001908152602001600020819055503373ffffffffffffffffffffffffffffffffffffffff167fd241e73300212f6df233a8e6d3146b88a9d4964e06621d54b5ff6afeba7b1b88836040518082815260200191505060405180910390a26001905092915050565b60008083831115151561370257600080fd5b82840390508091505092915050565b600060e060405190810160405280600081526020018873ffffffffffffffffffffffffffffffffffffffff1681526020018773ffffffffffffffffffffffffffffffffffffffff1681526020018673ffffffffffffffffffffffffffffffffffffffff168152602001856000191681526020018481526020018381525060008060025481526020019081526020016000206000820151816000015560208201518160010160006101000a81548173ffffffffffffffffffffffffffffffffffffffff021916908373ffffffffffffffffffffffffffffffffffffffff16021790555060408201518160020160006101000a81548173ffffffffffffffffffffffffffffffffffffffff021916908373ffffffffffffffffffffffffffffffffffffffff16021790555060608201518160030160006101000a81548173ffffffffffffffffffffffffffffffffffffffff021916908373ffffffffffffffffffffffffffffffffffffffff1602179055506080820151816004019060001916905560a0820151816005015560c082015181600601559050506138fa83600160003373ffffffffffffffffffffffffffffffffffffffff1673ffffffffffffffffffffffffffffffffffffffff168152602001908152602001600020546136f090919063ffffffff16565b600160003373ffffffffffffffffffffffffffffffffffffffff1673ffffffffffffffffffffffffffffffffffffffff1681526020019081526020016000208190555083600019168573ffffffffffffffffffffffffffffffffffffffff168873ffffffffffffffffffffffffffffffffffffffff167f172899db3034d5e4e68a2873998cc66a59bad4610fa6319a51f31f75e84452b760025460008b8989604051808681526020018581526020018473ffffffffffffffffffffffffffffffffffffffff1673ffffffffffffffffffffffffffffffffffffffff1681526020018381526020018281526020019550505050505060405180910390a46001600260008282540192505081905550600254600360008773ffffffffffffffffffffffffffffffffffffffff1673ffffffffffffffffffffffffffffffffffffffff168152602001908152602001600020819055508460046000600254815260200190815260200160002060006101000a81548173ffffffffffffffffffffffffffffffffffffffff021916908373ffffffffffffffffffffffffffffffffffffffff160217905550600190509695505050505050565b6000808284019050838110151515613ac657600080fd5b8091505092915050565b60008060008381526020019081526020016000209050613b608160050154600160008460010160009054906101000a900473ffffffffffffffffffffffffffffffffffffffff1673ffffffffffffffffffffffffffffffffffffffff1673ffffffffffffffffffffffffffffffffffffffff16815260200190815260200160002054613aaf90919063ffffffff16565b600160008360010160009054906101000a900473ffffffffffffffffffffffffffffffffffffffff1673ffffffffffffffffffffffffffffffffffffffff1673ffffffffffffffffffffffffffffffffffffffff1681526020019081526020016000208190555060008160050181905550600181600001600082825401925050819055506000816006018190555050505600a165627a7a72305820b4848209e3b7ed48899d759c2197ef9db66df6d78f4b0e40be43ab9b0cce27f60029",
  "source": "pragma solidity ^0.4.24;\n\nimport \"./IDO.sol\";\nimport \"../../node_modules/openzeppelin-solidity/contracts/math/SafeMath.sol\";\n\ncontract ContributionChannel  {\n    using SafeMath for uint256;\n\n    //TODO: we could use uint64 for value, nonce and expiration (it could be cheaper to store but more expensive to operate with)\n    //the full ID of \"atomic\" payment channel = \"[this, channelId, nonce]\"\n    struct PaymentChannel {\n        uint256 nonce; // \"nonce\" of the channel (by changing nonce we effectivly close the old channel ([this, channelId, oldNonce])\n        //  and open the new channel [this, channelId, newNonce])\n        //!!! nonce also prevents race conditon between channelClaim and channelExtendAndAddFunds\n        address sender; // The account sending payments. BOB\n        address signer; // signer on behalf of sender ALICE\n        address recipient; // The account receiving the payments. ALICE\n        bytes32 groupId; // id of group of replicas who share the same payment channel\n        // You should generate groupId randomly in order to prevent\n        // two PaymentChannel with the same [recipient, groupId]\n        uint256 value; // Total amount of tokens deposited to the channel.\n        uint256 expiration; // Timeout (in block numbers) in case the recipient never closes.\n        // if block.number > expiration then sender can call channelClaimTimeout\n    }\n\n\n    mapping(uint256 => PaymentChannel) public channels;\n    mapping(address => uint256) public balances; //tokens which have been deposit but haven't been escrowed in the channels\n\n    uint256 public nextChannelId; //id of the next channel (and size of channels)\n\n    mapping(address => uint) addressToChannelId;\n    mapping(uint => address) channelIdToAddress;\n\n    IDO public token; // Address of token contract\n\n    //already used messages for openChannelByThirdParty in order to prevent replay attack\n    mapping(bytes32 => bool) public usedMessages;\n\n    // Events\n    event ChannelOpen(\n        uint256 channelId,\n        uint256 nonce,\n        address indexed sender,\n        address signer,\n        address indexed recipient,\n        bytes32 indexed groupId,\n        uint256 amount,\n        uint256 expiration\n    );\n    event ChannelClaim(\n        uint256 indexed channelId,\n        uint256 nonce,\n        address indexed recipient,\n        uint256 claimAmount,\n        uint256 plannedAmount,\n        uint256 sendBackAmount,\n        uint256 keepAmount\n    );\n    event ChannelSenderClaim(\n        uint256 indexed channelId,\n        uint256 nonce,\n        uint256 claimAmount\n    );\n    event ChannelExtend(uint256 indexed channelId, uint256 newExpiration);\n    event ChannelAddFunds(uint256 indexed channelId, uint256 additionalFunds);\n    event DepositFunds(address indexed sender, uint256 amount);\n    event WithdrawFunds(address indexed sender, uint256 amount);\n    event TransferFunds(\n        address indexed sender,\n        address indexed receiver,\n        uint256 amount\n    );\n\n    constructor(address _token) public {\n        token = IDO(_token);\n    }\n\n    function getAddresToChannelId() public view returns (uint) {\n        return  addressToChannelId[msg.sender];\n    }\n\n    function getChannelIdToAddres(uint channelId) public view returns (address) {\n        return  channelIdToAddress[channelId];\n    }\n\n    function deposit(uint256 value) public returns (bool) {\n        require(\n             token.transferFrom(msg.sender, this, value), //msg.sender BILL, token = IDO.\n             \"Unable to transfer token to the contract.\"\n        );\n        balances[msg.sender] = balances[msg.sender].add(value);\n        emit DepositFunds(msg.sender, value);\n        return true;\n    }\n\n    function depositTo(address to, uint256 value) public returns (bool) {\n        require (\n            token.approve(msg.sender , value),\n            \"Unable to approve token of msg.sender\"\n        );\n        require(\n             token.transferFrom(to, token, value),\n             \"Unable to transfer token to the contract.\"\n        );\n        balances[msg.sender] = balances[msg.sender].add(value);\n        emit DepositFunds(msg.sender, value);\n        return true;\n    }\n\n    function getMsgSender() public view returns (IDO) {\n        return token;\n    }\n\n    function withdraw(uint256 value, address to) public returns (bool) {\n        require(\n            balances[to] >= value,\n            \"Insufficient balance in the contract.\"\n        );\n        require(\n            token.transfer(to, value),\n            \"Unable to transfer token to the contract.\"\n        );\n        balances[to] = balances[to].sub(value);\n        emit WithdrawFunds(to, value);\n        return true;\n    }\n\n    function balanceOwnerToken() public view returns (uint result) {\n        result = token.getBalancesFrom(msg.sender);\n    }\n\n    function balanceOwnerToken(address target) public view returns (uint result) {\n        result = token.getBalancesFrom(target);\n    }\n\n    function transfer(address receiver, uint256 value) public returns (bool) {\n        require(\n            balances[msg.sender] >= value,\n            \"Insufficient balance in the contract\"\n        );\n        balances[msg.sender] = balances[msg.sender].sub(value);\n        balances[receiver] = balances[receiver].add(value);\n\n        emit TransferFunds(msg.sender, receiver, value);\n        return true;\n    }\n\n    //open a channel, token should be already being deposit\n    //openChannel should be run only once for given sender, recipient, groupId\n    //channel can be reused even after channelClaim(..., isSendback=true)\n    //Bob/reciptient is the server Alice/signer\n    function openChannel(\n        address signer,\n        address recipient,\n        bytes32 groupId,\n        uint256 value,\n        uint256 expiration\n    ) public returns (bool) {\n        require(\n            balances[msg.sender] >= value,\n            \"Insufficient balance in the contract.\"\n        );\n        require(signer != address(0));\n\n        require(\n            _openChannel(\n                msg.sender,\n                signer,\n                recipient,\n                groupId,\n                value,\n                expiration\n            ),\n            \"Unable to open channel\"\n        );\n        return true;\n    }\n\n    function getECRecover(bytes32 message, uint8 v, bytes32 r, bytes32 s) public pure returns (address result) {\n        return ecrecover(message, v, r, s);\n    }\n\n    function getMessageHash(address _to, uint _amount, string memory _message, uint _nonce) public pure returns (bytes32)\n    {\n        return keccak256(abi.encodePacked(_to, _amount, _message, _nonce));\n    }\n\n    function getEthSignedMessageHash(bytes32 _messageHash) public pure returns (bytes32) {\n        return keccak256(abi.encodePacked(\"\\x19Ethereum Signed Message:\\n32\", _messageHash));\n    }\n\n    function verify(\n        address _signer,\n        address _to, uint _amount, string memory _message, uint _nonce,\n        bytes memory signature) public pure returns (bool)\n    {\n        bytes32 messageHash = getMessageHash(_to, _amount, _message, _nonce);\n        bytes32 ethSignedMessageHash = getEthSignedMessageHash(messageHash);\n\n        return recoverSigner(ethSignedMessageHash, signature) == _signer;\n    }\n\n\n    function recoverSigner(bytes32 _ethSignedMessageHash, bytes memory _signature)\n    public pure returns (address){\n        (bytes32 r, bytes32 s, uint8 v) = splitSignature(_signature);\n        return ecrecover(_ethSignedMessageHash, v, r, s);\n    }\n\n    function splitSignature(bytes memory sig)\n        public pure returns (bytes32 r, bytes32 s, uint8 v)\n    {\n        require(sig.length == 65, \"invalid signature length\");\n\n        assembly {\n            /*\n            First 32 bytes stores the length of the signature\n\n            add(sig, 32) = pointer of sig + 32\n            effectively, skips first 32 bytes of signature\n\n            mload(p) loads next 32 bytes starting at the memory address p into memory\n            */\n\n            // first 32 bytes, after the length prefix\n            r := mload(add(sig, 32))\n            // second 32 bytes\n            s := mload(add(sig, 64))\n            // final byte (first byte of the next 32 bytes)\n            v := byte(0, mload(add(sig, 96)))\n        }\n\n    }\n\n    //open a channel on behalf of the user. Sender should send the signed permission to open the channel\n    function openChannelByThirdParty(\n        address sender,\n        address signer,\n        address recipient,\n        bytes32 groupId,\n        uint256 value,\n        uint256 expiration,\n        uint256 messageNonce,\n        string givenMessage,\n        uint8 v,\n        bytes32 r,\n        bytes32 s,\n        bytes message\n    ) public returns (bool) {\n        require(balances[msg.sender] >= value, \"Insufficient balance\");\n        require(verify(signer, recipient, 1, givenMessage, messageNonce, message), \"Invalid signature\");\n        require(\n            _openChannel(sender, signer, recipient, groupId, value, expiration),\n            \"Unable to open channel\"\n        );\n        return true;\n    }\n\n    function _openChannel(\n        address sender,\n        address signer,\n        address recipient,\n        bytes32 groupId,\n        uint256 value,\n        uint256 expiration\n    ) private returns (bool) {\n        channels[nextChannelId] = PaymentChannel({\n            nonce: 0,\n            sender: sender,\n            signer: signer,\n            recipient: recipient,\n            groupId: groupId,\n            value: value,\n            expiration: expiration\n        });\n\n        balances[msg.sender] = balances[msg.sender].sub(value);\n        emit ChannelOpen(\n            nextChannelId,\n            0,\n            sender,\n            signer,\n            recipient,\n            groupId,\n            value,\n            expiration\n        );\n\n        nextChannelId += 1;\n\n        addressToChannelId[recipient] = nextChannelId;\n        channelIdToAddress[nextChannelId] = recipient;\n\n        return true;\n    }\n\n    function depositAndOpenChannel(\n        address signer,\n        address recipient,\n        bytes32 groupId,\n        uint256 value,\n        uint256 expiration\n    ) public returns (bool) {\n        require(deposit(value), \"Unable to deposit token to the contract.\");\n        require(\n            openChannel(signer, recipient, groupId, value, expiration),\n            \"Unable to open channel.\"\n        );\n        return true;\n    }\n\n    function _channelSendbackAndReopenSuspended(uint256 channelId) private {\n        PaymentChannel storage channel = channels[channelId];\n\n        balances[channel.sender] = balances[channel.sender].add(channel.value);\n        channel.value = 0;\n        channel.nonce += 1;\n        channel.expiration = 0;\n    }\n\n    // /**\n    //  * @dev function to claim multiple channels at a time. Needs to send limited channels per call\n    //  * @param channelIds list of channel Ids\n    //  * @param actualAmounts list of actual amounts should be aligned with channel ids index\n    //  * @param plannedAmounts list of planned amounts should be aligned with channel ids index\n    //  * @param isSendbacks list of sendbacks flags\n    //  * @param v channel senders signatures in V R S for each channel\n    //  * @param r channel senders signatures in V R S for each channel\n    //  * @param s channel senders signatures in V R S for each channel\n    //  */\n    function multiChannelClaim(\n        uint256[] channelIds,\n        uint256[] actualAmounts,\n        uint256[] plannedAmounts,\n        bool[] isSendbacks,\n        uint8[] v,\n        bytes32[] r,\n        bytes32[] s ,\n        address receiver,\n        bytes message\n    ) public {\n        uint256 len = channelIds.length;\n\n        require(\n            plannedAmounts.length == len &&\n                actualAmounts.length == len &&\n                isSendbacks.length == len &&\n                v.length == len &&\n                r.length == len &&\n                s.length == len,\n            \"Invalid function parameters.\"\n        );\n        for (uint256 i = 0; i < len; i++) {\n            channelClaim(\n                channelIds[i],\n                actualAmounts[i],\n                plannedAmounts[i],\n                '',\n                v[i],\n                r[i],\n                s[i],\n                isSendbacks[i],\n                receiver,\n                message\n            );\n        }\n    }\n\n    function channelClaim(\n        uint256 channelId,\n        uint256 actualAmount,\n        uint256 plannedAmount,\n        string givenString,\n        uint8 v,\n        bytes32 r,\n        bytes32 s,\n        bool isSendback,\n        //bytes32 message\n        address receiver,\n        bytes message\n        //Nog iets recipient\n    ) public {\n        PaymentChannel storage channel = channels[channelId];\n        require(actualAmount <= channel.value, \"Insufficient channel amount\");\n        require(actualAmount <= plannedAmount, \"Invalid actual amount\");\n        require(verify(msg.sender, receiver, 1, givenString, 1, message), \"Invalid signature\");\n\n        //transfer amount from the channel to the sender\n        channel.value = channel.value.sub(actualAmount);\n       // balances[msg.sender] = balances[msg.sender].add(actualAmount);\n        balances[receiver] = balances[receiver].add(actualAmount);\n\n        if (isSendback) {\n            _channelSendbackAndReopenSuspended(channelId);\n            emit ChannelClaim(\n                channelId,\n                channel.nonce,\n                msg.sender,\n                actualAmount,\n                plannedAmount,\n                channel.value,\n                0\n            );\n        } else {\n            //reopen new \"channel\", without sending back funds to \"sender\"\n            channel.nonce += 1;\n            emit ChannelClaim(\n                channelId,\n                channel.nonce,\n                msg.sender,\n               // receiver,\n                actualAmount,\n                plannedAmount,\n                0,\n                channel.value\n            );\n        }\n    }\n\n    /// the sender can extend the expiration at any time\n    function channelExtend(uint256 channelId, uint256 newExpiration)\n        public\n        returns (bool)\n    {\n        PaymentChannel storage channel = channels[channelId];\n\n        require(msg.sender == channel.sender, \"Sender not authorized\");\n        require(newExpiration >= channel.expiration, \"Invalid expiration.\");\n\n        channels[channelId].expiration = newExpiration;\n\n        emit ChannelExtend(channelId, newExpiration);\n        return true;\n    }\n\n    /// the sender could add funds to the channel at any time\n    /// any one can fund the channel irrespective of the sender\n    function channelAddFunds(uint256 channelId, uint256 amount)\n        public\n        returns (bool)\n    {\n        require(\n            balances[msg.sender] >= amount,\n            \"Insufficient balance in the contract\"\n        );\n        //transfer amount from sender to the channel\n        balances[msg.sender] = balances[msg.sender].sub(amount);\n        channels[channelId].value = channels[channelId].value.add(amount);\n\n        emit ChannelAddFunds(channelId, amount);\n        return true;\n    }\n\n    function channelExtendAndAddFunds(\n        uint256 channelId,\n        uint256 newExpiration,\n        uint256 amount\n    ) public {\n        require(\n            channelExtend(channelId, newExpiration),\n            \"Unable to extend the channel.\"\n        );\n        require(\n            channelAddFunds(channelId, amount),\n            \"Unable to add funds to channel.\"\n        );\n    }\n\n    // sender can claim refund if the timeout is reached\n    function channelClaimTimeout(uint256 channelId) public {\n        require(\n            msg.sender == channels[channelId].sender,\n            \"Sender not authorized.\"\n        );\n        require(\n            block.number >= channels[channelId].expiration,\n            \"Claim called too early.\"\n        );\n        _channelSendbackAndReopenSuspended(channelId);\n\n        emit ChannelSenderClaim(\n            channelId,\n            channels[channelId].nonce,\n            channels[channelId].value\n        );\n    }\n\n    /// builds a prefixed hash to mimic the behavior of ethSign.\n    function prefixed(bytes32 hash) internal pure returns (bytes32) {\n        return\n            keccak256(\n                abi.encodePacked(\"\\x19Ethereum Signed Message:\\n32\", hash)\n            );\n    }\n}\n",
  "sourcePath": "/home/jeffrey/token/dataunion_solidity/dapp/contracts/ContributionChannel.sol",
  "compiler": {
    "name": "solc",
    "version": "0.4.24+commit.e67f0147.Emscripten.clang"
  },
  "schemaVersion": "3.2.5",
  "updatedAt": "2020-10-28T18:20:49.723Z",
  "networkType": "ethereum",
  "devdoc": {
    "methods": {}
  },
  "userdoc": {
    "methods": {
      "channelAddFunds(uint256,uint256)": {
        "notice": "the sender could add funds to the channel at any time any one can fund the channel irrespective of the sender"
      },
      "channelExtend(uint256,uint256)": {
        "notice": "the sender can extend the expiration at any time"
      }
    }
  }
}