{
  "contractName": "Voting",
  "abi": [
    {
      "constant": false,
      "inputs": [],
      "name": "kill",
      "outputs": [],
      "payable": false,
      "stateMutability": "nonpayable",
      "type": "function"
    },
    {
      "constant": true,
      "inputs": [
        {
          "name": "",
          "type": "bytes32"
        }
      ],
      "name": "votesReceived",
      "outputs": [
        {
          "name": "",
          "type": "uint8"
        }
      ],
      "payable": false,
      "stateMutability": "view",
      "type": "function"
    },
    {
      "constant": true,
      "inputs": [
        {
          "name": "",
          "type": "uint256"
        }
      ],
      "name": "candidateList",
      "outputs": [
        {
          "name": "",
          "type": "bytes32"
        }
      ],
      "payable": false,
      "stateMutability": "view",
      "type": "function"
    },
    {
      "inputs": [
        {
          "name": "candidateNames",
          "type": "bytes32[]"
        }
      ],
      "payable": false,
      "stateMutability": "nonpayable",
      "type": "constructor"
    },
    {
      "constant": true,
      "inputs": [],
      "name": "getCandidateList",
      "outputs": [
        {
          "name": "",
          "type": "bytes32[]"
        }
      ],
      "payable": false,
      "stateMutability": "view",
      "type": "function"
    },
    {
      "constant": true,
      "inputs": [],
      "name": "getCandidateListLength",
      "outputs": [
        {
          "name": "",
          "type": "uint256"
        }
      ],
      "payable": false,
      "stateMutability": "view",
      "type": "function"
    },
    {
      "constant": true,
      "inputs": [
        {
          "name": "candidate",
          "type": "bytes32"
        }
      ],
      "name": "totalVotesFor",
      "outputs": [
        {
          "name": "",
          "type": "uint8"
        }
      ],
      "payable": false,
      "stateMutability": "view",
      "type": "function"
    },
    {
      "constant": false,
      "inputs": [
        {
          "name": "candidate",
          "type": "bytes32"
        }
      ],
      "name": "voteForCandidate",
      "outputs": [],
      "payable": false,
      "stateMutability": "nonpayable",
      "type": "function"
    },
    {
      "constant": true,
      "inputs": [
        {
          "name": "candidate",
          "type": "bytes32"
        }
      ],
      "name": "validCandidate",
      "outputs": [
        {
          "name": "",
          "type": "bool"
        }
      ],
      "payable": false,
      "stateMutability": "view",
      "type": "function"
    }
  ],
  "bytecode": "0x608060405234801561001057600080fd5b5060405161061c38038061061c83398101806040528101908080518201929190505050336000806101000a81548173ffffffffffffffffffffffffffffffffffffffff021916908373ffffffffffffffffffffffffffffffffffffffff1602179055508060029080519060200190610089929190610090565b5050610108565b8280548282559060005260206000209081019282156100d2579160200282015b828111156100d15782518290600019169055916020019190600101906100b0565b5b5090506100df91906100e3565b5090565b61010591905b808211156101015760008160009055506001016100e9565b5090565b90565b610505806101176000396000f30060806040526004361061008e576000357c0100000000000000000000000000000000000000000000000000000000900463ffffffff1680632f265cf714610093578063392e6678146100de57806341c0e1b5146101275780637021939f1461013e57806372d2d96514610189578063b13c744b146101b4578063cc9ab267146101fd578063fdbc40061461022e575b600080fd5b34801561009f57600080fd5b506100c2600480360381019080803560001916906020019092919050505061029a565b604051808260ff1660ff16815260200191505060405180910390f35b3480156100ea57600080fd5b5061010d60048036038101908080356000191690602001909291905050506102e0565b604051808215151515815260200191505060405180910390f35b34801561013357600080fd5b5061013c61033f565b005b34801561014a57600080fd5b5061016d60048036038101908080356000191690602001909291905050506103d0565b604051808260ff1660ff16815260200191505060405180910390f35b34801561019557600080fd5b5061019e6103f0565b6040518082815260200191505060405180910390f35b3480156101c057600080fd5b506101df600480360381019080803590602001909291905050506103fd565b60405180826000191660001916815260200191505060405180910390f35b34801561020957600080fd5b5061022c6004803603810190808035600019169060200190929190505050610420565b005b34801561023a57600080fd5b5061024361047d565b6040518080602001828103825283818151815260200191508051906020019060200280838360005b8381101561028657808201518184015260208101905061026b565b505050509050019250505060405180910390f35b60006102a5826102e0565b15156102b057600080fd5b60016000836000191660001916815260200190815260200160002060009054906101000a900460ff169050919050565b600080600090505b60028054905081101561033457826000191660028281548110151561030957fe5b90600052602060002001546000191614156103275760019150610339565b80806001019150506102e8565b600091505b50919050565b6000809054906101000a900473ffffffffffffffffffffffffffffffffffffffff1673ffffffffffffffffffffffffffffffffffffffff163373ffffffffffffffffffffffffffffffffffffffff1614156103ce576000809054906101000a900473ffffffffffffffffffffffffffffffffffffffff1673ffffffffffffffffffffffffffffffffffffffff16ff5b565b60016020528060005260406000206000915054906101000a900460ff1681565b6000600280549050905090565b60028181548110151561040c57fe5b906000526020600020016000915090505481565b610429816102e0565b151561043457600080fd5b6001806000836000191660001916815260200190815260200160002060008282829054906101000a900460ff160192506101000a81548160ff021916908360ff16021790555050565b606060028054806020026020016040519081016040528092919081815260200182805480156104cf57602002820191906000526020600020905b815460001916815260200190600101908083116104b7575b50505050509050905600a165627a7a72305820f2563f09c92d32c1c426a1dbce98f23f016f46bcd70d2b28fd26c52f9da0d1f80029",
  "source": "pragma solidity ^0.4.11;\n// We have to specify what version of compiler this code will compile with\n\nimport \"../lib/mortal.sol\";\n\ncontract Voting is mortal {\n  mapping (bytes32 => uint8) public votesReceived;\n\n  bytes32[] public candidateList;\n\n  function Voting(bytes32[] candidateNames) public {\n    candidateList = candidateNames;\n  }\n\n  function getCandidateList() public view returns (bytes32[]) {\n    return candidateList;\n  }\n\n  function getCandidateListLength() public view returns (uint) {\n    return candidateList.length;\n  }\n\n  function totalVotesFor(bytes32 candidate) public view returns (uint8) {\n    require(validCandidate(candidate));\n    return votesReceived[candidate];\n  }\n\n  function voteForCandidate(bytes32 candidate) public {\n    require(validCandidate(candidate));\n    votesReceived[candidate] += 1;\n  }\n\n  function validCandidate(bytes32 candidate) public view returns (bool) {\n    for(uint i = 0; i < candidateList.length; i++) {\n      if (candidateList[i] == candidate) {\n        return true;\n      }\n    }\n    return false;\n  }\n}\n",
  "sourcePath": "/home/jeffrey/token/dataunion_solidity/dapp/contracts/Voting.sol",
  "compiler": {
    "name": "solc",
    "version": "0.4.24+commit.e67f0147.Emscripten.clang"
  },
  "schemaVersion": "3.2.5",
  "updatedAt": "2020-10-28T18:20:47.955Z",
  "networkType": "ethereum",
  "devdoc": {
    "methods": {}
  },
  "userdoc": {
    "methods": {}
  }
}